{
  "_format": "hh-sol-artifact-1",
  "contractName": "StockOptionsFactory",
  "sourceName": "contracts/stockOptionsFactory.sol",
  "abi": [
    {
      "inputs": [
        {
          "internalType": "string",
          "name": "_name",
          "type": "string"
        },
        {
          "internalType": "uint256",
          "name": "_totalStockOptions",
          "type": "uint256"
        }
      ],
      "name": "createStockOptionsPlan",
      "outputs": [
        {
          "internalType": "address",
          "name": "",
          "type": "address"
        },
        {
          "internalType": "string",
          "name": "",
          "type": "string"
        }
      ],
      "stateMutability": "nonpayable",
      "type": "function"
    },
    {
      "inputs": [
        {
          "internalType": "uint256",
          "name": "",
          "type": "uint256"
        }
      ],
      "name": "deployedStockOptions",
      "outputs": [
        {
          "internalType": "address",
          "name": "",
          "type": "address"
        }
      ],
      "stateMutability": "view",
      "type": "function"
    },
    {
      "inputs": [],
      "name": "getCreatorDeployedContracts",
      "outputs": [
        {
          "components": [
            {
              "internalType": "string",
              "name": "name",
              "type": "string"
            },
            {
              "internalType": "address",
              "name": "newContractAddress",
              "type": "address"
            }
          ],
          "internalType": "struct StockOptionsFactory.AddressName[]",
          "name": "",
          "type": "tuple[]"
        }
      ],
      "stateMutability": "view",
      "type": "function"
    },
    {
      "inputs": [],
      "name": "getDeployedStockOptions",
      "outputs": [
        {
          "internalType": "address[]",
          "name": "",
          "type": "address[]"
        }
      ],
      "stateMutability": "view",
      "type": "function"
    }
  ],
  "bytecode": "0x608060405234801561001057600080fd5b50611fa5806100206000396000f3fe60806040523480156200001157600080fd5b5060043610620000525760003560e01c806318ef529414620000575780632ee21b6414620000875780632f0aebe614620000ad578063709211d414620000c6575b600080fd5b6200006e62000068366004620004aa565b620000df565b6040516200007e9291906200057a565b60405180910390f35b6200009e62000098366004620005a8565b620002f4565b6040516200007e9190620005c2565b620000b76200031f565b6040516200007e9190620005d6565b620000d062000383565b6040516200007e919062000625565b600060606000858585604051620000f6906200049c565b6200010493929190620006a8565b604051809103906000f08015801562000121573d6000803e3d6000fd5b5060405163f2fde38b60e01b81529091506001600160a01b0382169063f2fde38b9062000153903390600401620005c2565b600060405180830381600087803b1580156200016e57600080fd5b505af115801562000183573d6000803e3d6000fd5b505060008054600180820183557f290decd9548b62a8d60345a988386fc84ba6bc95484008f6362f93160ef3e56390910180546001600160a01b0319166001600160a01b03871617905533825260209081526040918290208251601f8b018390049092028201606090810184529282018a815290945090925082918a908a908190850183828082843760009201829052509385525050506001600160a01b03851660209283015283546001810185559381522081519192600202019081906200024d908262000786565b5060208201518160010160006101000a8154816001600160a01b0302191690836001600160a01b03160217905550505080816001600160a01b03166306fdde036040518163ffffffff1660e01b8152600401600060405180830381865afa158015620002bd573d6000803e3d6000fd5b505050506040513d6000823e601f3d908101601f19168201604052620002e7919081019062000852565b9250925050935093915050565b600081815481106200030557600080fd5b6000918252602090912001546001600160a01b0316905081565b606060008054806020026020016040519081016040528092919081815260200182805480156200037957602002820191906000526020600020905b81546001600160a01b031681526001909101906020018083116200035a575b5050505050905090565b336000908152600160209081526040808320805482518185028101850190935280835260609492939192909184015b82821015620004935783829060005260206000209060020201604051806040016040529081600082018054620003e890620006f7565b80601f01602080910402602001604051908101604052809291908181526020018280546200041690620006f7565b8015620004675780601f106200043b5761010080835404028352916020019162000467565b820191906000526020600020905b8154815290600101906020018083116200044957829003601f168201915b50505091835250506001918201546001600160a01b0316602091820152918352929092019101620003b2565b50505050905090565b611665806200090b83390190565b600080600060408486031215620004c057600080fd5b83356001600160401b0380821115620004d857600080fd5b818601915086601f830112620004ed57600080fd5b813581811115620004fd57600080fd5b8760208285010111156200051057600080fd5b6020928301989097509590910135949350505050565b60005b838110156200054357818101518382015260200162000529565b50506000910152565b600081518084526200056681602086016020860162000526565b601f01601f19169290920160200192915050565b6001600160a01b0383168152604060208201819052600090620005a0908301846200054c565b949350505050565b600060208284031215620005bb57600080fd5b5035919050565b6001600160a01b0391909116815260200190565b6020808252825182820181905260009190848201906040850190845b81811015620006195783516001600160a01b031683529284019291840191600101620005f2565b50909695505050505050565b60006020808301818452808551808352604092508286019150828160051b87010184880160005b838110156200069a57888303603f190185528151805187855262000673888601826200054c565b918901516001600160a01b031694890194909452948701949250908601906001016200064c565b509098975050505050505050565b604081528260408201528284606083013760006060848301015260006060601f19601f8601168301019050826020830152949350505050565b634e487b7160e01b600052604160045260246000fd5b600181811c908216806200070c57607f821691505b6020821081036200072d57634e487b7160e01b600052602260045260246000fd5b50919050565b601f8211156200078157600081815260208120601f850160051c810160208610156200075c5750805b601f850160051c820191505b818110156200077d5782815560010162000768565b5050505b505050565b81516001600160401b03811115620007a257620007a2620006e1565b620007ba81620007b38454620006f7565b8462000733565b602080601f831160018114620007f25760008415620007d95750858301515b600019600386901b1c1916600185901b1785556200077d565b600085815260208120601f198616915b82811015620008235788860151825594840194600190910190840162000802565b5085821015620008425787850151600019600388901b60f8161c191681555b5050505050600190811b01905550565b6000602082840312156200086557600080fd5b81516001600160401b03808211156200087d57600080fd5b818401915084601f8301126200089257600080fd5b815181811115620008a757620008a7620006e1565b604051601f8201601f19908116603f01168101908382118183101715620008d257620008d2620006e1565b81604052828152876020848701011115620008ec57600080fd5b620008ff83602083016020880162000526565b97965050505050505056fe60806040523480156200001157600080fd5b5060405162001665380380620016658339810160408190526200003491620000c2565b6200003f336200005c565b6001805560026200005183826200022c565b5060035550620002f8565b600080546001600160a01b038381166001600160a01b0319831681178455604051919092169283917f8be0079c531659141344cd1fd0a4f28419497f9722a3daafe3b4186f6b6457e09190a35050565b634e487b7160e01b600052604160045260246000fd5b60008060408385031215620000d657600080fd5b82516001600160401b0380821115620000ee57600080fd5b818501915085601f8301126200010357600080fd5b815181811115620001185762000118620000ac565b604051601f8201601f19908116603f01168101908382118183101715620001435762000143620000ac565b816040528281526020935088848487010111156200016057600080fd5b600091505b8282101562000184578482018401518183018501529083019062000165565b6000928101840192909252509401519395939450505050565b600181811c90821680620001b257607f821691505b602082108103620001d357634e487b7160e01b600052602260045260246000fd5b50919050565b601f8211156200022757600081815260208120601f850160051c81016020861015620002025750805b601f850160051c820191505b8181101562000223578281556001016200020e565b5050505b505050565b81516001600160401b03811115620002485762000248620000ac565b62000260816200025984546200019d565b84620001d9565b602080601f8311600181146200029857600084156200027f5750858301515b600019600386901b1c1916600185901b17855562000223565b600085815260208120601f198616915b82811015620002c957888601518255948401946001909101908401620002a8565b5085821015620002e85787850151600019600388901b60f8161c191681555b5050505050600190811b01905550565b61135d80620003086000396000f3fe608060405234801561001057600080fd5b50600436106100f15760003560e01c806306fdde03146100f65780630fe5300b14610114578063180711ba1461012957806332648e091461014a5780633590accf1461018157806340c69a80146101945780634739326b1461019d5780635339c995146101c85780636cabbe16146101d0578063715018a6146101e357806376048b83146101eb57806385149258146101fe5780638da5cb5b14610206578063a09da4451461020e578063a2c9a62914610221578063ca49a54314610229578063ea66543f1461022f578063f2fde38b14610252578063f3cb8c3114610265575b600080fd5b6100fe610278565b60405161010b9190611110565b60405180910390f35b61012761012236600461117a565b610306565b005b61013c6101373660046111a4565b6104cc565b60405190815260200161010b565b61015d6101583660046111a4565b610617565b6040805182518152602080840151908201529181015115159082015260600161010b565b61012761018f36600461117a565b6106ce565b61013c60035481565b6101b06101ab3660046111c6565b610826565b6040516001600160a01b03909116815260200161010b565b61013c610850565b61013c6101de3660046111a4565b610861565b6101276108c9565b61013c6101f93660046111a4565b6108dd565b610127610945565b6101b0610a4b565b61012761021c36600461117a565b610a5a565b610127610ba8565b4261013c565b61024261023d3660046111a4565b610cac565b604051901515815260200161010b565b6101276102603660046111a4565b610cff565b6101276102733660046111a4565b610d78565b60028054610285906111df565b80601f01602080910402602001604051908101604052809291908181526020018280546102b1906111df565b80156102fe5780601f106102d3576101008083540402835291602001916102fe565b820191906000526020600020905b8154815290600101906020018083116102e157829003601f168201915b505050505081565b61030f33610d89565b6103345760405162461bcd60e51b815260040161032b90611219565b60405180910390fd5b61033d82610d89565b6103885760405162461bcd60e51b815260206004820152601c60248201527b43616e206f6e6c792073656e6420746f20616e20456d706c6f79656560201b604482015260640161032b565b600081116103e85760405162461bcd60e51b815260206004820152602760248201527f73746f636b206f7074696f6e73206d7573742062652067726561746572207468604482015266616e207a65726f60c81b606482015260840161032b565b336000908152600860205260409020548111156104595760405162461bcd60e51b815260206004820152602960248201527f456d706c6f7965652068617320696e73756666696369656e742076657374696e604482015268672062616c616e636560b81b606482015260840161032b565b336000908152600860205260408120805483929061047890849061127e565b90915550506001600160a01b038216600090815260086020526040812080548392906104a5908490611291565b909155505033600090815260066020526040902054156104c8576104c833610daa565b5050565b60006104d733610d89565b6104f35760405162461bcd60e51b815260040161032b90611219565b6104fc82610d89565b6105185760405162461bcd60e51b815260040161032b906112a4565b6001600160a01b0382166000908152600660205260409020600190810154016105535760405162461bcd60e51b815260040161032b906112cd565b6001600160a01b0382166000908152600660205260409020546105b75760405162461bcd60e51b815260206004820152601c60248201527b456d706c6f79656520646f65736e277420686176652073746f636b7360201b604482015260640161032b565b6001600160a01b0382166000908152600660205260408120600101546105de90429061127e565b116105ea576000610611565b6001600160a01b03821660009081526006602052604090206001015461061190429061127e565b92915050565b61063d604051806060016040528060008152602001600081526020016000151581525090565b61064633610d89565b6106625760405162461bcd60e51b815260040161032b90611219565b61066b82610d89565b6106875760405162461bcd60e51b815260040161032b906112a4565b506001600160a01b03166000908152600660209081526040918290208251606081018452815481526001820154928101929092526002015460ff1615159181019190915290565b6106d6610ed9565b6106de610f38565b6106e782610d89565b6107035760405162461bcd60e51b815260040161032b906112a4565b4281116107615760405162461bcd60e51b815260206004820152602660248201527f76657374696e67207363686564756c65206d75737420626520696e207468652060448201526566757475726560d01b606482015260840161032b565b6001600160a01b0382166000908152600660205260409020546107d25760405162461bcd60e51b815260206004820152602360248201527f456d706c6f79656520646f65736e277420686176652073746f636b206f7074696044820152626f6e7360e81b606482015260840161032b565b6001600160a01b038216600090815260066020526040902060010154600019146107ff576107ff82610daa565b6001600160a01b03821660009081526006602052604090206001018190556104c860018055565b6005818154811061083657600080fd5b6000918252602090912001546001600160a01b0316905081565b600061085a610ed9565b5060045490565b600061086c33610d89565b6108885760405162461bcd60e51b815260040161032b90611219565b61089182610d89565b6108ad5760405162461bcd60e51b815260040161032b906112a4565b506001600160a01b031660009081526007602052604090205490565b6108d1610ed9565b6108db6000610f91565b565b60006108e833610d89565b6109045760405162461bcd60e51b815260040161032b90611219565b61090d82610d89565b6109295760405162461bcd60e51b815260040161032b906112a4565b506001600160a01b031660009081526008602052604090205490565b61094d610f38565b61095633610d89565b6109725760405162461bcd60e51b815260040161032b90611219565b336000908152600860205260409020546109f45760405162461bcd60e51b815260206004820152603d60248201527f456d706c6f7965652076657374696e672042616c616e6365206973203c3d207a60448201527f65726f206f7220656d706c6f79656520646f65736e2774206578697374000000606482015260840161032b565b3360009081526008602090815260408083205460079092528220805491929091610a1f908490611291565b9091555050336000908152600860205260408120805491610a40838061127e565b909155505060018055565b6000546001600160a01b031690565b610a62610ed9565b6001600160a01b038216610ab35760405162461bcd60e51b8152602060048201526018602482015277496e76616c696420656d706c6f796565206164647265737360401b604482015260640161032b565b6001600160a01b03821660009081526006602052604081206002015460ff1615159003610ae357610ae382610fe1565b610aec82610d89565b610b085760405162461bcd60e51b815260040161032b906112a4565b6001600160a01b03821660009081526006602052604090206001015460001914610b3557610b3582610daa565b6001600160a01b03821660009081526006602052604081208054839290610b5d908490611291565b9091555050604080516001600160a01b0384168152602081018390527fdf372a90c395fd9f7b9e5eff63962ad3dc36e9f4ae38073d200ba3e10dbf853c910160405180910390a15050565b610bb0610f38565b610bb933610d89565b610bd55760405162461bcd60e51b815260040161032b90611219565b33600090815260066020526040902054610c3d5760405162461bcd60e51b8152602060048201526024808201527f456d706c6f79656520646f6573206e6f7420686176652073746f636b206f7074604482015263696f6e7360e01b606482015260840161032b565b336000908152600660205260409020600101544211610c9a5760405162461bcd60e51b815260206004820152601960248201527814dd1bd8dac813dc1d1a5bdb9cc81e595d081d1bc81d995cdd603a1b604482015260640161032b565b610ca333610daa565b6108db60018055565b6000610cb733610d89565b80610cda5750610cc5610a4b565b6001600160a01b0316336001600160a01b0316145b610cf65760405162461bcd60e51b815260040161032b90611219565b61061182610d89565b610d07610ed9565b6001600160a01b038116610d6c5760405162461bcd60e51b815260206004820152602660248201527f4f776e61626c653a206e6577206f776e657220697320746865207a65726f206160448201526564647265737360d01b606482015260840161032b565b610d7581610f91565b50565b610d80610ed9565b610d7581610fe1565b6001600160a01b031660009081526006602052604090206002015460ff1690565b6001600160a01b038116600090815260066020526040902060019081015401610de55760405162461bcd60e51b815260040161032b906112cd565b6001600160a01b03811660009081526006602052604090205415801590610e2657506001600160a01b03811660009081526006602052604090206001015442115b15610d75576001600160a01b03811660009081526006602090815260408083205460089092528220805491929091610e5f908490611291565b90915550506001600160a01b03811660009081526006602052604080822054338352908220805491929091610e9590849061127e565b90915550506001600160a01b03811660009081526006602052604080822060019081015433845291832001805491929091610ed190849061127e565b909155505050565b33610ee2610a4b565b6001600160a01b0316146108db5760405162461bcd60e51b815260206004820181905260248201527f4f776e61626c653a2063616c6c6572206973206e6f7420746865206f776e6572604482015260640161032b565b600260015403610f8a5760405162461bcd60e51b815260206004820152601f60248201527f5265656e7472616e637947756172643a207265656e7472616e742063616c6c00604482015260640161032b565b6002600155565b600080546001600160a01b038381166001600160a01b0319831681178455604051919092169283917f8be0079c531659141344cd1fd0a4f28419497f9722a3daafe3b4186f6b6457e09190a35050565b610fe9610ed9565b610ff1610f38565b6001600160a01b03811660009081526006602052604090206002015460ff16156110535760405162461bcd60e51b8152602060048201526013602482015272416c726561647920616e20456d706c6f79656560681b604482015260640161032b565b604080516060810182526000808252600019602080840191825260018486018181526001600160a01b038816855260069092529483209351845590519383019390935591516002909101805460ff191691151591909117905560048054916110ba8361130e565b909155505060058054600180820183556000929092527f036b6384b5eca791c62761152d0c79bb0604c104a5fb6f4eb0703f3154bb3db00180546001600160a01b0319166001600160a01b038416179055805550565b600060208083528351808285015260005b8181101561113d57858101830151858201604001528201611121565b506000604082860101526040601f19601f8301168501019250505092915050565b80356001600160a01b038116811461117557600080fd5b919050565b6000806040838503121561118d57600080fd5b6111968361115e565b946020939093013593505050565b6000602082840312156111b657600080fd5b6111bf8261115e565b9392505050565b6000602082840312156111d857600080fd5b5035919050565b600181811c908216806111f357607f821691505b60208210810361121357634e487b7160e01b600052602260045260246000fd5b50919050565b6020808252602f908201527f596f7520617265206e6f7420616e20656d706c6f7965652c736f20796f75206360408201526e616e6e6f742063616c6c207468697360881b606082015260800190565b634e487b7160e01b600052601160045260246000fd5b8181038181111561061157610611611268565b8082018082111561061157610611611268565b6020808252600f908201526e4e6f7420616e20456d706c6f79656560881b604082015260600190565b60208082526021908201527f56657374696e67207363686564756c652069732079657420746f2062652073656040820152601d60fa1b606082015260800190565b60006001820161132057611320611268565b506001019056fea264697066735822122007acd076a59bb2b23a15f422b612ce3b6a1b054c1517321a4d507cf99a58eed564736f6c63430008120033a2646970667358221220831aaf8b6d36213db98932b4560abc30bd93ba9b38be3695ba707c03103f906d64736f6c63430008120033",
  "linkReferences": {},
  "deployedLinkReferences": {}
}